{
  "contractName": "BetContract",
  "abi": [
    {
      "constant": true,
      "inputs": [
        {
          "name": "",
          "type": "address"
        }
      ],
      "name": "playerInfo",
      "outputs": [
        {
          "name": "amount",
          "type": "uint256"
        },
        {
          "name": "team",
          "type": "uint16"
        }
      ],
      "payable": false,
      "stateMutability": "view",
      "type": "function"
    },
    {
      "constant": true,
      "inputs": [],
      "name": "sumBetsFirstTeam",
      "outputs": [
        {
          "name": "",
          "type": "uint256"
        }
      ],
      "payable": false,
      "stateMutability": "view",
      "type": "function"
    },
    {
      "constant": true,
      "inputs": [],
      "name": "owner",
      "outputs": [
        {
          "name": "",
          "type": "address"
        }
      ],
      "payable": false,
      "stateMutability": "view",
      "type": "function"
    },
    {
      "constant": true,
      "inputs": [],
      "name": "sumBetsSecondTeam",
      "outputs": [
        {
          "name": "",
          "type": "uint256"
        }
      ],
      "payable": false,
      "stateMutability": "view",
      "type": "function"
    },
    {
      "constant": true,
      "inputs": [],
      "name": "minimumBet",
      "outputs": [
        {
          "name": "",
          "type": "uint256"
        }
      ],
      "payable": false,
      "stateMutability": "view",
      "type": "function"
    },
    {
      "constant": true,
      "inputs": [
        {
          "name": "",
          "type": "uint256"
        }
      ],
      "name": "players",
      "outputs": [
        {
          "name": "",
          "type": "address"
        }
      ],
      "payable": false,
      "stateMutability": "view",
      "type": "function"
    },
    {
      "inputs": [],
      "payable": false,
      "stateMutability": "nonpayable",
      "type": "constructor"
    },
    {
      "payable": true,
      "stateMutability": "payable",
      "type": "fallback"
    },
    {
      "constant": false,
      "inputs": [],
      "name": "kill",
      "outputs": [],
      "payable": false,
      "stateMutability": "nonpayable",
      "type": "function"
    },
    {
      "constant": true,
      "inputs": [
        {
          "name": "player",
          "type": "address"
        }
      ],
      "name": "checkPlayerExists",
      "outputs": [
        {
          "name": "",
          "type": "bool"
        }
      ],
      "payable": false,
      "stateMutability": "view",
      "type": "function"
    },
    {
      "constant": false,
      "inputs": [
        {
          "name": "_team",
          "type": "uint8"
        }
      ],
      "name": "placeBet",
      "outputs": [],
      "payable": true,
      "stateMutability": "payable",
      "type": "function"
    },
    {
      "constant": false,
      "inputs": [
        {
          "name": "winnerTeam",
          "type": "uint16"
        }
      ],
      "name": "distributePrizes",
      "outputs": [],
      "payable": true,
      "stateMutability": "payable",
      "type": "function"
    },
    {
      "constant": true,
      "inputs": [
        {
          "name": "team",
          "type": "uint16"
        }
      ],
      "name": "getSumBetsByTeam",
      "outputs": [
        {
          "name": "",
          "type": "uint256"
        }
      ],
      "payable": false,
      "stateMutability": "view",
      "type": "function"
    }
  ],
  "bytecode": "0x608060405234801561001057600080fd5b50336000806101000a81548173ffffffffffffffffffffffffffffffffffffffff021916908373ffffffffffffffffffffffffffffffffffffffff160217905550655af3107a4000600181905550610ae68061006d6000396000f3fe6080604052600436106100af576000357c0100000000000000000000000000000000000000000000000000000000900463ffffffff1680634081d916146100b157806341c0e1b51461011a57806343046844146101315780634b114691146101625780634dcfff3e146101d65780637904f688146102015780638da5cb5b1461023357806391919bcf1461028a578063bf580301146102dd578063c38a8afd14610308578063f71d96cb14610333575b005b3480156100bd57600080fd5b50610100600480360360208110156100d457600080fd5b81019080803573ffffffffffffffffffffffffffffffffffffffff1690602001909291905050506103ae565b604051808215151515815260200191505060405180910390f35b34801561012657600080fd5b5061012f610452565b005b6101606004803603602081101561014757600080fd5b81019080803560ff1690602001909291905050506104e3565b005b34801561016e57600080fd5b506101b16004803603602081101561018557600080fd5b81019080803573ffffffffffffffffffffffffffffffffffffffff169060200190929190505050610636565b604051808381526020018261ffff1661ffff1681526020019250505060405180910390f35b3480156101e257600080fd5b506101eb610668565b6040518082815260200191505060405180910390f35b6102316004803603602081101561021757600080fd5b81019080803561ffff16906020019092919050505061066e565b005b34801561023f57600080fd5b506102486109b1565b604051808273ffffffffffffffffffffffffffffffffffffffff1673ffffffffffffffffffffffffffffffffffffffff16815260200191505060405180910390f35b34801561029657600080fd5b506102c7600480360360208110156102ad57600080fd5b81019080803561ffff1690602001909291905050506109d6565b6040518082815260200191505060405180910390f35b3480156102e957600080fd5b506102f26109fa565b6040518082815260200191505060405180910390f35b34801561031457600080fd5b5061031d610a00565b6040518082815260200191505060405180910390f35b34801561033f57600080fd5b5061036c6004803603602081101561035657600080fd5b8101908080359060200190929190505050610a06565b604051808273ffffffffffffffffffffffffffffffffffffffff1673ffffffffffffffffffffffffffffffffffffffff16815260200191505060405180910390f35b600080600090505b600480549050811015610447578273ffffffffffffffffffffffffffffffffffffffff166004828154811015156103e957fe5b9060005260206000200160009054906101000a900473ffffffffffffffffffffffffffffffffffffffff1673ffffffffffffffffffffffffffffffffffffffff16141561043a57600191505061044d565b80806001019150506103b6565b50600090505b919050565b6000809054906101000a900473ffffffffffffffffffffffffffffffffffffffff1673ffffffffffffffffffffffffffffffffffffffff163373ffffffffffffffffffffffffffffffffffffffff1614156104e1576000809054906101000a900473ffffffffffffffffffffffffffffffffffffffff1673ffffffffffffffffffffffffffffffffffffffff16ff5b565b60015434101515156104f457600080fd5b34600560003373ffffffffffffffffffffffffffffffffffffffff1673ffffffffffffffffffffffffffffffffffffffff168152602001908152602001600020600001819055508060ff16600560003373ffffffffffffffffffffffffffffffffffffffff1673ffffffffffffffffffffffffffffffffffffffff16815260200190815260200160002060010160006101000a81548161ffff021916908361ffff16021790555060043390806001815401808255809150509060018203906000526020600020016000909192909190916101000a81548173ffffffffffffffffffffffffffffffffffffffff021916908373ffffffffffffffffffffffffffffffffffffffff1602179055505060018160ff1614156106225734600260008282540192505081905550610633565b346003600082825401925050819055505b50565b60056020528060005260406000206000915090508060000154908060010160009054906101000a900461ffff16905082565b60025481565b610676610a44565b600080905060008090506000809050600080600060038861ffff16141561078c5760008090505b60048054905081101561077f576004818154811015156106b957fe5b9060005260206000200160009054906101000a900473ffffffffffffffffffffffffffffffffffffffff169150600560008373ffffffffffffffffffffffffffffffffffffffff1673ffffffffffffffffffffffffffffffffffffffff1681526020019081526020016000206000015492508173ffffffffffffffffffffffffffffffffffffffff166108fc849081150290604051600060405180830381858888f19350505050158015610771573d6000803e3d6000fd5b50808060010191505061069d565b50505050505050506109ae565b60018861ffff1614156107a857600254935060035494506107c1565b60028861ffff1614156107c057600254935060035494505b5b6000841480156107d15750600085145b156107e257505050505050506109ae565b60008090505b8681101561091e57600073ffffffffffffffffffffffffffffffffffffffff1688826103e88110151561081757fe5b602002015173ffffffffffffffffffffffffffffffffffffffff161415156108505787816103e88110151561084857fe5b602002015193505b600560008573ffffffffffffffffffffffffffffffffffffffff1673ffffffffffffffffffffffffffffffffffffffff16815260200190815260200160002060000154925087816103e8811015156108a457fe5b602002015173ffffffffffffffffffffffffffffffffffffffff166108fc612710876127108a028115156108d457fe5b046127100186028115156108e457fe5b049081150290604051600060405180830381858888f19350505050158015610910573d6000803e3d6000fd5b5080806001019150506107e8565b50600560008273ffffffffffffffffffffffffffffffffffffffff1673ffffffffffffffffffffffffffffffffffffffff1681526020019081526020016000206000808201600090556001820160006101000a81549061ffff02191690555050600060048161098d9190610a69565b50600094506000935060006002819055506000600381905550505050505050505b50565b6000809054906101000a900473ffffffffffffffffffffffffffffffffffffffff1681565b600060018261ffff1614156109ef5760025490506109f5565b60035490505b919050565b60035481565b60015481565b600481815481101515610a1557fe5b906000526020600020016000915054906101000a900473ffffffffffffffffffffffffffffffffffffffff1681565b617d00604051908101604052806103e890602082028038833980820191505090505090565b815481835581811115610a9057818360005260206000209182019101610a8f9190610a95565b5b505050565b610ab791905b80821115610ab3576000816000905550600101610a9b565b5090565b9056fea165627a7a723058200ef3ab6ea751a070d10a7f05de6bb7585afb5e551564cea979df22c14d43c7680029",
  "source": "pragma solidity >=0.4.22 <0.6.0;\ncontract BetContract {\n   address payable public owner;\n   uint256 public minimumBet;\n   uint256 public sumBetsFirstTeam;\n   uint256 public sumBetsSecondTeam;\n   address payable[] public players;\n   struct Player {\n      uint256 amount;\n      uint16 team;\n    }\n   //The address of the player and => the user info\n   mapping(address => Player) public playerInfo;\n   function() external payable {}\n\n    constructor() public {\n      owner = msg.sender;\n      minimumBet = 100000000000000;\n    }\n    function kill() public {\n      if(msg.sender == owner) selfdestruct(owner);\n    }\n\n    function checkPlayerExists(address payable player) public view returns(bool){\n      for(uint256 i = 0; i < players.length; i++){\n         if(players[i] == player) return true;\n      }\n      return false;\n    }\n\n    function placeBet(uint8 _team) public payable {\n      //The first require is used to check if the player already exist\n      // we can allow player to make more than one bet\n      //require(!checkPlayerExists(msg.sender));\n      //The second one is used to see if the value sended by the player is\n      //Higher than the minimum value\n      require(msg.value >= minimumBet);\n      //set the player informations : amount of the bet and selected team\n      playerInfo[msg.sender].amount = msg.value;\n      playerInfo[msg.sender].team = _team;\n      //then we add the address of the player to the players array\n      players.push(msg.sender);\n      //at the end, we increment the stakes of the team selected with the player bet\n      if ( _team == 1){\n          sumBetsFirstTeam += msg.value;\n      }\n      else{\n          sumBetsSecondTeam += msg.value;\n      }\n    }\n\n    function distributePrizes(uint16 winnerTeam) payable public {\n\n      address payable[1000] memory winners;\n      uint256 count = 0; // This is the count for the array of winners\n      uint256 LoserBet = 0; //This will take the value of all losers bet\n      uint256 WinnerBet = 0; //This will take the value of all winners bet\n      address add;\n      uint256 bet;\n      address payable playerAddress;\n      //define which bet sum is the Loser one and which one is the winner\n\n      if(winnerTeam == 3){ //teams have drew\n          //loop through the player array to check who selected the winner team\n          for(uint256 i = 0; i < players.length; i++){\n             playerAddress = players[i];\n             bet = playerInfo[playerAddress].amount;\n             //If teams have drew we re-assign to each player the sum they have bet\n             playerAddress.transfer(bet);\n          }\n\n          return;\n      }\n      else if ( winnerTeam == 1){\n         WinnerBet = sumBetsFirstTeam;\n         LoserBet = sumBetsSecondTeam;\n      }\n      else if(winnerTeam == 2){\n          WinnerBet = sumBetsFirstTeam;\n          LoserBet = sumBetsSecondTeam;\n      }\n\n      if(WinnerBet == 0 && LoserBet == 0)\n        return;\n      //loop through the array of winners, to give ethers to the winners\n      for(uint256 j = 0; j < count; j++){\n          // Check that the address in this fixed array is not empty\n         if(winners[j] != address(0))\n            add = winners[j];\n            bet = playerInfo[add].amount;\n            //Transfer the money to the user\n            winners[j].transfer((bet*(10000+(LoserBet*10000/WinnerBet)))/10000);\n      }\n\n      delete playerInfo[playerAddress]; // Delete all the players\n      players.length = 0; // Delete all the players array\n      LoserBet = 0; //reinitialize the bets\n      WinnerBet = 0;\n      sumBetsFirstTeam = 0;\n      sumBetsSecondTeam = 0;\n    }\n\n    function getSumBetsByTeam(uint16 team) public view returns(uint256){\n      if (team == 1)\n         return sumBetsFirstTeam;\n      else\n          return sumBetsSecondTeam;\n    }\n}\n",
  "sourcePath": "/Users/marco/blockchain-bet/contracts/BetContract.sol",
  "compiler": {
    "name": "solc",
    "version": "0.5.0+commit.1d4f565a.Emscripten.clang"
  },
  "schemaVersion": "3.0.1",
  "updatedAt": "2019-01-11T10:45:53.932Z",
  "devdoc": {
    "methods": {}
  },
  "userdoc": {
    "methods": {}
  }
}