{
  "contractName": "BetContract",
  "abi": [
    {
      "constant": true,
      "inputs": [
        {
          "name": "",
          "type": "address"
        }
      ],
      "name": "playerInfo",
      "outputs": [
        {
          "name": "amount",
          "type": "uint256"
        },
        {
          "name": "team",
          "type": "uint16"
        }
      ],
      "payable": false,
      "stateMutability": "view",
      "type": "function"
    },
    {
      "constant": true,
      "inputs": [],
      "name": "sumBetsFirstTeam",
      "outputs": [
        {
          "name": "",
          "type": "uint256"
        }
      ],
      "payable": false,
      "stateMutability": "view",
      "type": "function"
    },
    {
      "constant": true,
      "inputs": [],
      "name": "owner",
      "outputs": [
        {
          "name": "",
          "type": "address"
        }
      ],
      "payable": false,
      "stateMutability": "view",
      "type": "function"
    },
    {
      "constant": true,
      "inputs": [],
      "name": "sumBetsSecondTeam",
      "outputs": [
        {
          "name": "",
          "type": "uint256"
        }
      ],
      "payable": false,
      "stateMutability": "view",
      "type": "function"
    },
    {
      "constant": true,
      "inputs": [],
      "name": "minimumBet",
      "outputs": [
        {
          "name": "",
          "type": "uint256"
        }
      ],
      "payable": false,
      "stateMutability": "view",
      "type": "function"
    },
    {
      "constant": true,
      "inputs": [
        {
          "name": "",
          "type": "uint256"
        }
      ],
      "name": "players",
      "outputs": [
        {
          "name": "",
          "type": "address"
        }
      ],
      "payable": false,
      "stateMutability": "view",
      "type": "function"
    },
    {
      "inputs": [],
      "payable": false,
      "stateMutability": "nonpayable",
      "type": "constructor"
    },
    {
      "payable": true,
      "stateMutability": "payable",
      "type": "fallback"
    },
    {
      "constant": false,
      "inputs": [],
      "name": "kill",
      "outputs": [],
      "payable": false,
      "stateMutability": "nonpayable",
      "type": "function"
    },
    {
      "constant": true,
      "inputs": [
        {
          "name": "player",
          "type": "address"
        }
      ],
      "name": "checkPlayerExists",
      "outputs": [
        {
          "name": "",
          "type": "bool"
        }
      ],
      "payable": false,
      "stateMutability": "view",
      "type": "function"
    },
    {
      "constant": false,
      "inputs": [
        {
          "name": "team",
          "type": "uint8"
        }
      ],
      "name": "placeBet",
      "outputs": [],
      "payable": true,
      "stateMutability": "payable",
      "type": "function"
    },
    {
      "constant": false,
      "inputs": [
        {
          "name": "winnerTeam",
          "type": "uint16"
        }
      ],
      "name": "distributePrizes",
      "outputs": [],
      "payable": false,
      "stateMutability": "nonpayable",
      "type": "function"
    },
    {
      "constant": true,
      "inputs": [
        {
          "name": "team",
          "type": "uint16"
        }
      ],
      "name": "getSumBetsByTeam",
      "outputs": [
        {
          "name": "",
          "type": "uint256"
        }
      ],
      "payable": false,
      "stateMutability": "view",
      "type": "function"
    }
  ],
  "bytecode": "0x608060405234801561001057600080fd5b50336000806101000a81548173ffffffffffffffffffffffffffffffffffffffff021916908373ffffffffffffffffffffffffffffffffffffffff160217905550655af3107a4000600181905550610c518061006d6000396000f3fe6080604052600436106100af576000357c0100000000000000000000000000000000000000000000000000000000900463ffffffff1680634081d916146100b157806341c0e1b51461011a57806343046844146101315780634b114691146101625780634dcfff3e146101d65780637904f688146102015780638da5cb5b1461024057806391919bcf14610297578063bf580301146102ea578063c38a8afd14610315578063f71d96cb14610340575b005b3480156100bd57600080fd5b50610100600480360360208110156100d457600080fd5b81019080803573ffffffffffffffffffffffffffffffffffffffff1690602001909291905050506103bb565b604051808215151515815260200191505060405180910390f35b34801561012657600080fd5b5061012f61045f565b005b6101606004803603602081101561014757600080fd5b81019080803560ff1690602001909291905050506104f0565b005b34801561016e57600080fd5b506101b16004803603602081101561018557600080fd5b81019080803573ffffffffffffffffffffffffffffffffffffffff169060200190929190505050610663565b604051808381526020018261ffff1661ffff1681526020019250505060405180910390f35b3480156101e257600080fd5b506101eb610695565b6040518082815260200191505060405180910390f35b34801561020d57600080fd5b5061023e6004803603602081101561022457600080fd5b81019080803561ffff16906020019092919050505061069b565b005b34801561024c57600080fd5b50610255610b1c565b604051808273ffffffffffffffffffffffffffffffffffffffff1673ffffffffffffffffffffffffffffffffffffffff16815260200191505060405180910390f35b3480156102a357600080fd5b506102d4600480360360208110156102ba57600080fd5b81019080803561ffff169060200190929190505050610b41565b6040518082815260200191505060405180910390f35b3480156102f657600080fd5b506102ff610b65565b6040518082815260200191505060405180910390f35b34801561032157600080fd5b5061032a610b6b565b6040518082815260200191505060405180910390f35b34801561034c57600080fd5b506103796004803603602081101561036357600080fd5b8101908080359060200190929190505050610b71565b604051808273ffffffffffffffffffffffffffffffffffffffff1673ffffffffffffffffffffffffffffffffffffffff16815260200191505060405180910390f35b600080600090505b600480549050811015610454578273ffffffffffffffffffffffffffffffffffffffff166004828154811015156103f657fe5b9060005260206000200160009054906101000a900473ffffffffffffffffffffffffffffffffffffffff1673ffffffffffffffffffffffffffffffffffffffff16141561044757600191505061045a565b80806001019150506103c3565b50600090505b919050565b6000809054906101000a900473ffffffffffffffffffffffffffffffffffffffff1673ffffffffffffffffffffffffffffffffffffffff163373ffffffffffffffffffffffffffffffffffffffff1614156104ee576000809054906101000a900473ffffffffffffffffffffffffffffffffffffffff1673ffffffffffffffffffffffffffffffffffffffff16ff5b565b60018160ff161480610505575060028160ff16145b151561051057600080fd5b600154341015151561052157600080fd5b34600560003373ffffffffffffffffffffffffffffffffffffffff1673ffffffffffffffffffffffffffffffffffffffff168152602001908152602001600020600001819055508060ff16600560003373ffffffffffffffffffffffffffffffffffffffff1673ffffffffffffffffffffffffffffffffffffffff16815260200190815260200160002060010160006101000a81548161ffff021916908361ffff16021790555060043390806001815401808255809150509060018203906000526020600020016000909192909190916101000a81548173ffffffffffffffffffffffffffffffffffffffff021916908373ffffffffffffffffffffffffffffffffffffffff1602179055505060018160ff16141561064f5734600260008282540192505081905550610660565b346003600082825401925050819055505b50565b60056020528060005260406000206000915090508060000154908060010160009054906101000a900461ffff16905082565b60025481565b60018161ffff1614806106b2575060028161ffff16145b806106c1575060038161ffff16145b15156106cc57600080fd5b6106d4610baf565b600080905060008090506000809050600080600060038861ffff1614156107ea5760008090505b6004805490508110156107dd5760048181548110151561071757fe5b9060005260206000200160009054906101000a900473ffffffffffffffffffffffffffffffffffffffff169150600560008373ffffffffffffffffffffffffffffffffffffffff1673ffffffffffffffffffffffffffffffffffffffff1681526020019081526020016000206000015492508173ffffffffffffffffffffffffffffffffffffffff166108fc849081150290604051600060405180830381858888f193505050501580156107cf573d6000803e3d6000fd5b5080806001019150506106fb565b5050505050505050610b19565b60018861ffff161415610806576002549350600354945061081f565b60028861ffff16141561081e57600254935060035494505b5b60008414801561082f5750600085145b156108405750505050505050610b19565b60008090505b60048054905081101561094c5760048181548110151561086257fe5b9060005260206000200160009054906101000a900473ffffffffffffffffffffffffffffffffffffffff1691508861ffff16600560008473ffffffffffffffffffffffffffffffffffffffff1673ffffffffffffffffffffffffffffffffffffffff16815260200190815260200160002060010160009054906101000a900461ffff1661ffff16141561093f578188886103e8811015156108ff57fe5b602002019073ffffffffffffffffffffffffffffffffffffffff16908173ffffffffffffffffffffffffffffffffffffffff168152505086806001019750505b8080600101915050610846565b5060008090505b86811015610a8957600073ffffffffffffffffffffffffffffffffffffffff1688826103e88110151561098257fe5b602002015173ffffffffffffffffffffffffffffffffffffffff161415156109bb5787816103e8811015156109b357fe5b602002015193505b600560008573ffffffffffffffffffffffffffffffffffffffff1673ffffffffffffffffffffffffffffffffffffffff16815260200190815260200160002060000154925087816103e881101515610a0f57fe5b602002015173ffffffffffffffffffffffffffffffffffffffff166108fc612710876127108a02811515610a3f57fe5b04612710018602811515610a4f57fe5b049081150290604051600060405180830381858888f19350505050158015610a7b573d6000803e3d6000fd5b508080600101915050610953565b50600560008273ffffffffffffffffffffffffffffffffffffffff1673ffffffffffffffffffffffffffffffffffffffff1681526020019081526020016000206000808201600090556001820160006101000a81549061ffff021916905550506000600481610af89190610bd4565b50600094506000935060006002819055506000600381905550505050505050505b50565b6000809054906101000a900473ffffffffffffffffffffffffffffffffffffffff1681565b600060018261ffff161415610b5a576002549050610b60565b60035490505b919050565b60035481565b60015481565b600481815481101515610b8057fe5b906000526020600020016000915054906101000a900473ffffffffffffffffffffffffffffffffffffffff1681565b617d00604051908101604052806103e890602082028038833980820191505090505090565b815481835581811115610bfb57818360005260206000209182019101610bfa9190610c00565b5b505050565b610c2291905b80821115610c1e576000816000905550600101610c06565b5090565b9056fea165627a7a72305820ee387ad6c746500b51ef1f3398630f4cdacc1d6c83aff61e512caf7ac95d8bd40029",
  "source": "pragma solidity >=0.4.22 <0.6.0;\ncontract BetContract {\n   address payable public owner;\n   uint256 public minimumBet;\n   uint256 public sumBetsFirstTeam;\n   uint256 public sumBetsSecondTeam;\n   address payable[] public players;\n   struct Player {\n      uint256 amount;\n      uint16 team;\n    }\n   //The address of the player and => the user info\n   mapping(address => Player) public playerInfo;\n   function() external payable {}\n\n    constructor() public {\n      owner = msg.sender;\n      minimumBet = 100000000000000;\n    }\n    function kill() public {\n      if(msg.sender == owner) selfdestruct(owner);\n    }\n\n    function checkPlayerExists(address payable player) public view returns(bool){\n      for(uint256 i = 0; i < players.length; i++){\n         if(players[i] == player) return true;\n      }\n      return false;\n    }\n\n    function placeBet(uint8 team) public payable {\n\n      require(team == 1 || team == 2);\n\n      require(msg.value >= minimumBet);\n\n      playerInfo[msg.sender].amount = msg.value;\n      playerInfo[msg.sender].team = team;\n\n      players.push(msg.sender);\n\n      if (team == 1){\n          sumBetsFirstTeam += msg.value;\n      }\n      else{\n          sumBetsSecondTeam += msg.value;\n      }\n    }\n\n    function distributePrizes(uint16 winnerTeam) public {\n\n      require(winnerTeam == 1 || winnerTeam == 2 || winnerTeam == 3);\n\n      address payable[1000] memory winners;\n      uint256 count = 0;\n      uint256 LoserBet = 0;\n      uint256 WinnerBet = 0;\n      address add;\n      uint256 bet;\n      address payable playerAddress;\n\n      if(winnerTeam == 3){ //teams have drew\n          for(uint256 i = 0; i < players.length; i++){\n             playerAddress = players[i];\n             bet = playerInfo[playerAddress].amount;\n             //If teams have drew we re-assign to each player the sum they have bet\n             playerAddress.transfer(bet);\n          }\n\n          return;\n      }\n      else if ( winnerTeam == 1){\n         WinnerBet = sumBetsFirstTeam;\n         LoserBet = sumBetsSecondTeam;\n      }\n      else if(winnerTeam == 2){\n          WinnerBet = sumBetsFirstTeam;\n          LoserBet = sumBetsSecondTeam;\n      }\n\n      if(WinnerBet == 0 && LoserBet == 0)\n        return;\n\n      for(uint256 i = 0; i < players.length; i++){\n        playerAddress = players[i];\n\n        if(playerInfo[playerAddress].team == winnerTeam){\n          winners[count] = playerAddress;\n          count++;\n        }\n      }\n\n\n      for(uint256 j = 0; j < count; j++){\n\n         if(winners[j] != address(0))\n            add = winners[j];\n            bet = playerInfo[add].amount;\n            //Transfer the money to the user\n            winners[j].transfer((bet*(10000+(LoserBet*10000/WinnerBet)))/10000);\n      }\n\n      delete playerInfo[playerAddress];\n      players.length = 0;\n      LoserBet = 0;\n      WinnerBet = 0;\n      sumBetsFirstTeam = 0;\n      sumBetsSecondTeam = 0;\n    }\n\n    function getSumBetsByTeam(uint16 team) public view returns(uint256){\n      if (team == 1)\n         return sumBetsFirstTeam;\n      else\n          return sumBetsSecondTeam;\n    }\n}\n",
  "sourcePath": "/Users/marco/blockchain-bet/contracts/BetContract.sol",
  "compiler": {
    "name": "solc",
    "version": "0.5.0+commit.1d4f565a.Emscripten.clang"
  },
  "schemaVersion": "3.0.1",
  "updatedAt": "2019-01-11T12:16:56.933Z",
  "devdoc": {
    "methods": {}
  },
  "userdoc": {
    "methods": {}
  }
}